{
  "_format": "hh-sol-artifact-1",
  "contractName": "SHINUNFT",
  "sourceName": "contracts/SHINUNFT.sol",
  "abi": [
    {
      "inputs": [
        {
          "internalType": "string[]",
          "name": "_tokenURIs",
          "type": "string[]"
        }
      ],
      "stateMutability": "nonpayable",
      "type": "constructor"
    },
    {
      "anonymous": false,
      "inputs": [
        {
          "indexed": true,
          "internalType": "address",
          "name": "owner",
          "type": "address"
        },
        {
          "indexed": true,
          "internalType": "address",
          "name": "approved",
          "type": "address"
        },
        {
          "indexed": true,
          "internalType": "uint256",
          "name": "tokenId",
          "type": "uint256"
        }
      ],
      "name": "Approval",
      "type": "event"
    },
    {
      "anonymous": false,
      "inputs": [
        {
          "indexed": true,
          "internalType": "address",
          "name": "owner",
          "type": "address"
        },
        {
          "indexed": true,
          "internalType": "address",
          "name": "operator",
          "type": "address"
        },
        {
          "indexed": false,
          "internalType": "bool",
          "name": "approved",
          "type": "bool"
        }
      ],
      "name": "ApprovalForAll",
      "type": "event"
    },
    {
      "anonymous": false,
      "inputs": [
        {
          "indexed": true,
          "internalType": "address",
          "name": "previousOwner",
          "type": "address"
        },
        {
          "indexed": true,
          "internalType": "address",
          "name": "newOwner",
          "type": "address"
        }
      ],
      "name": "OwnershipTransferred",
      "type": "event"
    },
    {
      "anonymous": false,
      "inputs": [
        {
          "indexed": true,
          "internalType": "address",
          "name": "from",
          "type": "address"
        },
        {
          "indexed": true,
          "internalType": "address",
          "name": "to",
          "type": "address"
        },
        {
          "indexed": true,
          "internalType": "uint256",
          "name": "tokenId",
          "type": "uint256"
        }
      ],
      "name": "Transfer",
      "type": "event"
    },
    {
      "inputs": [
        {
          "internalType": "address",
          "name": "to",
          "type": "address"
        },
        {
          "internalType": "uint256",
          "name": "tokenId",
          "type": "uint256"
        }
      ],
      "name": "approve",
      "outputs": [],
      "stateMutability": "nonpayable",
      "type": "function"
    },
    {
      "inputs": [
        {
          "internalType": "address",
          "name": "owner",
          "type": "address"
        }
      ],
      "name": "balanceOf",
      "outputs": [
        {
          "internalType": "uint256",
          "name": "",
          "type": "uint256"
        }
      ],
      "stateMutability": "view",
      "type": "function"
    },
    {
      "inputs": [
        {
          "internalType": "uint256",
          "name": "tokenId",
          "type": "uint256"
        }
      ],
      "name": "getApproved",
      "outputs": [
        {
          "internalType": "address",
          "name": "",
          "type": "address"
        }
      ],
      "stateMutability": "view",
      "type": "function"
    },
    {
      "inputs": [
        {
          "internalType": "address",
          "name": "owner",
          "type": "address"
        },
        {
          "internalType": "address",
          "name": "operator",
          "type": "address"
        }
      ],
      "name": "isApprovedForAll",
      "outputs": [
        {
          "internalType": "bool",
          "name": "",
          "type": "bool"
        }
      ],
      "stateMutability": "view",
      "type": "function"
    },
    {
      "inputs": [],
      "name": "mint",
      "outputs": [],
      "stateMutability": "nonpayable",
      "type": "function"
    },
    {
      "inputs": [],
      "name": "name",
      "outputs": [
        {
          "internalType": "string",
          "name": "",
          "type": "string"
        }
      ],
      "stateMutability": "view",
      "type": "function"
    },
    {
      "inputs": [],
      "name": "nextTokenId",
      "outputs": [
        {
          "internalType": "uint256",
          "name": "",
          "type": "uint256"
        }
      ],
      "stateMutability": "view",
      "type": "function"
    },
    {
      "inputs": [],
      "name": "owner",
      "outputs": [
        {
          "internalType": "address",
          "name": "",
          "type": "address"
        }
      ],
      "stateMutability": "view",
      "type": "function"
    },
    {
      "inputs": [
        {
          "internalType": "uint256",
          "name": "tokenId",
          "type": "uint256"
        }
      ],
      "name": "ownerOf",
      "outputs": [
        {
          "internalType": "address",
          "name": "",
          "type": "address"
        }
      ],
      "stateMutability": "view",
      "type": "function"
    },
    {
      "inputs": [],
      "name": "renounceOwnership",
      "outputs": [],
      "stateMutability": "nonpayable",
      "type": "function"
    },
    {
      "inputs": [
        {
          "internalType": "address",
          "name": "from",
          "type": "address"
        },
        {
          "internalType": "address",
          "name": "to",
          "type": "address"
        },
        {
          "internalType": "uint256",
          "name": "tokenId",
          "type": "uint256"
        }
      ],
      "name": "safeTransferFrom",
      "outputs": [],
      "stateMutability": "nonpayable",
      "type": "function"
    },
    {
      "inputs": [
        {
          "internalType": "address",
          "name": "from",
          "type": "address"
        },
        {
          "internalType": "address",
          "name": "to",
          "type": "address"
        },
        {
          "internalType": "uint256",
          "name": "tokenId",
          "type": "uint256"
        },
        {
          "internalType": "bytes",
          "name": "data",
          "type": "bytes"
        }
      ],
      "name": "safeTransferFrom",
      "outputs": [],
      "stateMutability": "nonpayable",
      "type": "function"
    },
    {
      "inputs": [
        {
          "internalType": "address",
          "name": "operator",
          "type": "address"
        },
        {
          "internalType": "bool",
          "name": "approved",
          "type": "bool"
        }
      ],
      "name": "setApprovalForAll",
      "outputs": [],
      "stateMutability": "nonpayable",
      "type": "function"
    },
    {
      "inputs": [
        {
          "internalType": "bytes4",
          "name": "interfaceId",
          "type": "bytes4"
        }
      ],
      "name": "supportsInterface",
      "outputs": [
        {
          "internalType": "bool",
          "name": "",
          "type": "bool"
        }
      ],
      "stateMutability": "view",
      "type": "function"
    },
    {
      "inputs": [],
      "name": "symbol",
      "outputs": [
        {
          "internalType": "string",
          "name": "",
          "type": "string"
        }
      ],
      "stateMutability": "view",
      "type": "function"
    },
    {
      "inputs": [
        {
          "internalType": "uint256",
          "name": "tokenId",
          "type": "uint256"
        }
      ],
      "name": "tokenURI",
      "outputs": [
        {
          "internalType": "string",
          "name": "",
          "type": "string"
        }
      ],
      "stateMutability": "view",
      "type": "function"
    },
    {
      "inputs": [
        {
          "internalType": "uint256",
          "name": "",
          "type": "uint256"
        }
      ],
      "name": "tokenURIs",
      "outputs": [
        {
          "internalType": "string",
          "name": "",
          "type": "string"
        }
      ],
      "stateMutability": "view",
      "type": "function"
    },
    {
      "inputs": [
        {
          "internalType": "address",
          "name": "from",
          "type": "address"
        },
        {
          "internalType": "address",
          "name": "to",
          "type": "address"
        },
        {
          "internalType": "uint256",
          "name": "tokenId",
          "type": "uint256"
        }
      ],
      "name": "transferFrom",
      "outputs": [],
      "stateMutability": "nonpayable",
      "type": "function"
    },
    {
      "inputs": [
        {
          "internalType": "address",
          "name": "newOwner",
          "type": "address"
        }
      ],
      "name": "transferOwnership",
      "outputs": [],
      "stateMutability": "nonpayable",
      "type": "function"
    }
  ],
  "bytecode": "0x608060405234801562000010575f80fd5b50604051620030e7380380620030e783398181016040528101906200003691906200053a565b6040518060400160405280600881526020017f5348494e554e46540000000000000000000000000000000000000000000000008152506040518060400160405280600581526020017f5348494e55000000000000000000000000000000000000000000000000000000815250815f9081620000b29190620007c0565b508060019081620000c49190620007c0565b505050620000e7620000db6200010e60201b60201c565b6200011560201b60201c565b8060089080519060200190620000ff929190620001d8565b505f60078190555050620008a4565b5f33905090565b5f60065f9054906101000a900473ffffffffffffffffffffffffffffffffffffffff1690508160065f6101000a81548173ffffffffffffffffffffffffffffffffffffffff021916908373ffffffffffffffffffffffffffffffffffffffff1602179055508173ffffffffffffffffffffffffffffffffffffffff168173ffffffffffffffffffffffffffffffffffffffff167f8be0079c531659141344cd1fd0a4f28419497f9722a3daafe3b4186f6b6457e060405160405180910390a35050565b828054828255905f5260205f2090810192821562000223579160200282015b8281111562000222578251829081620002119190620007c0565b5091602001919060010190620001f7565b5b50905062000232919062000236565b5090565b5b8082111562000259575f81816200024f91906200025d565b5060010162000237565b5090565b5080546200026b90620005c0565b5f825580601f106200027e57506200029d565b601f0160209004905f5260205f20908101906200029c9190620002a0565b5b50565b5b80821115620002b9575f815f905550600101620002a1565b5090565b5f604051905090565b5f80fd5b5f80fd5b5f80fd5b5f601f19601f8301169050919050565b7f4e487b71000000000000000000000000000000000000000000000000000000005f52604160045260245ffd5b6200031a82620002d2565b810181811067ffffffffffffffff821117156200033c576200033b620002e2565b5b80604052505050565b5f62000350620002bd565b90506200035e82826200030f565b919050565b5f67ffffffffffffffff82111562000380576200037f620002e2565b5b602082029050602081019050919050565b5f80fd5b5f80fd5b5f67ffffffffffffffff821115620003b657620003b5620002e2565b5b620003c182620002d2565b9050602081019050919050565b5f5b83811015620003ed578082015181840152602081019050620003d0565b5f8484015250505050565b5f6200040e620004088462000399565b62000345565b9050828152602081018484840111156200042d576200042c62000395565b5b6200043a848285620003ce565b509392505050565b5f82601f830112620004595762000458620002ce565b5b81516200046b848260208601620003f8565b91505092915050565b5f6200048a620004848462000363565b62000345565b90508083825260208201905060208402830185811115620004b057620004af62000391565b5b835b81811015620004fe57805167ffffffffffffffff811115620004d957620004d8620002ce565b5b808601620004e8898262000442565b85526020850194505050602081019050620004b2565b5050509392505050565b5f82601f8301126200051f576200051e620002ce565b5b81516200053184826020860162000474565b91505092915050565b5f60208284031215620005525762000551620002c6565b5b5f82015167ffffffffffffffff811115620005725762000571620002ca565b5b620005808482850162000508565b91505092915050565b5f81519050919050565b7f4e487b71000000000000000000000000000000000000000000000000000000005f52602260045260245ffd5b5f6002820490506001821680620005d857607f821691505b602082108103620005ee57620005ed62000593565b5b50919050565b5f819050815f5260205f209050919050565b5f6020601f8301049050919050565b5f82821b905092915050565b5f60088302620006527fffffffffffffffffffffffffffffffffffffffffffffffffffffffffffffffff8262000615565b6200065e868362000615565b95508019841693508086168417925050509392505050565b5f819050919050565b5f819050919050565b5f620006a8620006a26200069c8462000676565b6200067f565b62000676565b9050919050565b5f819050919050565b620006c38362000688565b620006db620006d282620006af565b84845462000621565b825550505050565b5f90565b620006f1620006e3565b620006fe818484620006b8565b505050565b5b818110156200072557620007195f82620006e7565b60018101905062000704565b5050565b601f82111562000774576200073e81620005f4565b620007498462000606565b8101602085101562000759578190505b62000771620007688562000606565b83018262000703565b50505b505050565b5f82821c905092915050565b5f620007965f198460080262000779565b1980831691505092915050565b5f620007b0838362000785565b9150826002028217905092915050565b620007cb8262000589565b67ffffffffffffffff811115620007e757620007e6620002e2565b5b620007f38254620005c0565b6200080082828562000729565b5f60209050601f83116001811462000836575f841562000821578287015190505b6200082d8582620007a3565b8655506200089c565b601f1984166200084686620005f4565b5f5b828110156200086f5784890151825560018201915060208501945060208101905062000848565b868310156200088f57848901516200088b601f89168262000785565b8355505b6001600288020188555050505b505050505050565b61283580620008b25f395ff3fe608060405234801561000f575f80fd5b506004361061011f575f3560e01c806370a08231116100ab578063a22cb4651161006f578063a22cb465146102f3578063b88d4fde1461030f578063c87b56dd1461032b578063e985e9c51461035b578063f2fde38b1461038b5761011f565b806370a082311461025f578063715018a61461028f57806375794a3c146102995780638da5cb5b146102b757806395d89b41146102d55761011f565b80631249c58b116100f25780631249c58b146101bd57806323b872dd146101c757806342842e0e146101e35780636352211e146101ff5780636c8b703f1461022f5761011f565b806301ffc9a71461012357806306fdde0314610153578063081812fc14610171578063095ea7b3146101a1575b5f80fd5b61013d6004803603810190610138919061199d565b6103a7565b60405161014a91906119e2565b60405180910390f35b61015b610488565b6040516101689190611a85565b60405180910390f35b61018b60048036038101906101869190611ad8565b610517565b6040516101989190611b42565b60405180910390f35b6101bb60048036038101906101b69190611b85565b610559565b005b6101c561066f565b005b6101e160048036038101906101dc9190611bc3565b6106e5565b005b6101fd60048036038101906101f89190611bc3565b610745565b005b61021960048036038101906102149190611ad8565b610764565b6040516102269190611b42565b60405180910390f35b61024960048036038101906102449190611ad8565b6107e8565b6040516102569190611a85565b60405180910390f35b61027960048036038101906102749190611c13565b61088e565b6040516102869190611c4d565b60405180910390f35b610297610942565b005b6102a1610955565b6040516102ae9190611c4d565b60405180910390f35b6102bf61095b565b6040516102cc9190611b42565b60405180910390f35b6102dd610983565b6040516102ea9190611a85565b60405180910390f35b61030d60048036038101906103089190611c90565b610a13565b005b61032960048036038101906103249190611dfa565b610a29565b005b61034560048036038101906103409190611ad8565b610a8b565b6040516103529190611a85565b60405180910390f35b61037560048036038101906103709190611e7a565b610b7f565b60405161038291906119e2565b60405180910390f35b6103a560048036038101906103a09190611c13565b610c0d565b005b5f7f80ac58cd000000000000000000000000000000000000000000000000000000007bffffffffffffffffffffffffffffffffffffffffffffffffffffffff1916827bffffffffffffffffffffffffffffffffffffffffffffffffffffffff1916148061047157507f5b5e139f000000000000000000000000000000000000000000000000000000007bffffffffffffffffffffffffffffffffffffffffffffffffffffffff1916827bffffffffffffffffffffffffffffffffffffffffffffffffffffffff1916145b80610481575061048082610c8f565b5b9050919050565b60605f805461049690611ee5565b80601f01602080910402602001604051908101604052809291908181526020018280546104c290611ee5565b801561050d5780601f106104e45761010080835404028352916020019161050d565b820191905f5260205f20905b8154815290600101906020018083116104f057829003601f168201915b5050505050905090565b5f61052182610cf8565b60045f8381526020019081526020015f205f9054906101000a900473ffffffffffffffffffffffffffffffffffffffff169050919050565b5f61056382610764565b90508073ffffffffffffffffffffffffffffffffffffffff168373ffffffffffffffffffffffffffffffffffffffff16036105d3576040517f08c379a00000000000000000000000000000000000000000000000000000000081526004016105ca90611f85565b60405180910390fd5b8073ffffffffffffffffffffffffffffffffffffffff166105f2610d43565b73ffffffffffffffffffffffffffffffffffffffff16148061062157506106208161061b610d43565b610b7f565b5b610660576040517f08c379a000000000000000000000000000000000000000000000000000000000815260040161065790612013565b60405180910390fd5b61066a8383610d4a565b505050565b610677610e00565b600880549050600754106106c0576040517f08c379a00000000000000000000000000000000000000000000000000000000081526004016106b79061207b565b60405180910390fd5b6106cc33600754610e7e565b60075f8154809291906106de906120c6565b9190505550565b6106f66106f0610d43565b82610e9b565b610735576040517f08c379a000000000000000000000000000000000000000000000000000000000815260040161072c9061217d565b60405180910390fd5b610740838383610f2f565b505050565b61075f83838360405180602001604052805f815250610a29565b505050565b5f8061076f8361121b565b90505f73ffffffffffffffffffffffffffffffffffffffff168173ffffffffffffffffffffffffffffffffffffffff16036107df576040517f08c379a00000000000000000000000000000000000000000000000000000000081526004016107d6906121e5565b60405180910390fd5b80915050919050565b600881815481106107f7575f80fd5b905f5260205f20015f91509050805461080f90611ee5565b80601f016020809104026020016040519081016040528092919081815260200182805461083b90611ee5565b80156108865780601f1061085d57610100808354040283529160200191610886565b820191905f5260205f20905b81548152906001019060200180831161086957829003601f168201915b505050505081565b5f8073ffffffffffffffffffffffffffffffffffffffff168273ffffffffffffffffffffffffffffffffffffffff16036108fd576040517f08c379a00000000000000000000000000000000000000000000000000000000081526004016108f490612273565b60405180910390fd5b60035f8373ffffffffffffffffffffffffffffffffffffffff1673ffffffffffffffffffffffffffffffffffffffff1681526020019081526020015f20549050919050565b61094a610e00565b6109535f611254565b565b60075481565b5f60065f9054906101000a900473ffffffffffffffffffffffffffffffffffffffff16905090565b60606001805461099290611ee5565b80601f01602080910402602001604051908101604052809291908181526020018280546109be90611ee5565b8015610a095780601f106109e057610100808354040283529160200191610a09565b820191905f5260205f20905b8154815290600101906020018083116109ec57829003601f168201915b5050505050905090565b610a25610a1e610d43565b8383611317565b5050565b610a3a610a34610d43565b83610e9b565b610a79576040517f08c379a0000000000000000000000000000000000000000000000000000000008152600401610a709061217d565b60405180910390fd5b610a858484848461147e565b50505050565b6060610a96826114da565b610ad5576040517f08c379a0000000000000000000000000000000000000000000000000000000008152600401610acc90612301565b60405180910390fd5b60088281548110610ae957610ae861231f565b5b905f5260205f20018054610afc90611ee5565b80601f0160208091040260200160405190810160405280929190818152602001828054610b2890611ee5565b8015610b735780601f10610b4a57610100808354040283529160200191610b73565b820191905f5260205f20905b815481529060010190602001808311610b5657829003601f168201915b50505050509050919050565b5f60055f8473ffffffffffffffffffffffffffffffffffffffff1673ffffffffffffffffffffffffffffffffffffffff1681526020019081526020015f205f8373ffffffffffffffffffffffffffffffffffffffff1673ffffffffffffffffffffffffffffffffffffffff1681526020019081526020015f205f9054906101000a900460ff16905092915050565b610c15610e00565b5f73ffffffffffffffffffffffffffffffffffffffff168173ffffffffffffffffffffffffffffffffffffffff1603610c83576040517f08c379a0000000000000000000000000000000000000000000000000000000008152600401610c7a906123bc565b60405180910390fd5b610c8c81611254565b50565b5f7f01ffc9a7000000000000000000000000000000000000000000000000000000007bffffffffffffffffffffffffffffffffffffffffffffffffffffffff1916827bffffffffffffffffffffffffffffffffffffffffffffffffffffffff1916149050919050565b610d01816114da565b610d40576040517f08c379a0000000000000000000000000000000000000000000000000000000008152600401610d37906121e5565b60405180910390fd5b50565b5f33905090565b8160045f8381526020019081526020015f205f6101000a81548173ffffffffffffffffffffffffffffffffffffffff021916908373ffffffffffffffffffffffffffffffffffffffff160217905550808273ffffffffffffffffffffffffffffffffffffffff16610dba83610764565b73ffffffffffffffffffffffffffffffffffffffff167f8c5be1e5ebec7d5bd14f71427d1e84f3dd0314c0f7b2291e5b200ac8c7c3b92560405160405180910390a45050565b610e08610d43565b73ffffffffffffffffffffffffffffffffffffffff16610e2661095b565b73ffffffffffffffffffffffffffffffffffffffff1614610e7c576040517f08c379a0000000000000000000000000000000000000000000000000000000008152600401610e7390612424565b60405180910390fd5b565b610e97828260405180602001604052805f81525061151a565b5050565b5f80610ea683610764565b90508073ffffffffffffffffffffffffffffffffffffffff168473ffffffffffffffffffffffffffffffffffffffff161480610ee85750610ee78185610b7f565b5b80610f2657508373ffffffffffffffffffffffffffffffffffffffff16610f0e84610517565b73ffffffffffffffffffffffffffffffffffffffff16145b91505092915050565b8273ffffffffffffffffffffffffffffffffffffffff16610f4f82610764565b73ffffffffffffffffffffffffffffffffffffffff1614610fa5576040517f08c379a0000000000000000000000000000000000000000000000000000000008152600401610f9c906124b2565b60405180910390fd5b5f73ffffffffffffffffffffffffffffffffffffffff168273ffffffffffffffffffffffffffffffffffffffff1603611013576040517f08c379a000000000000000000000000000000000000000000000000000000000815260040161100a90612540565b60405180910390fd5b6110208383836001611574565b8273ffffffffffffffffffffffffffffffffffffffff1661104082610764565b73ffffffffffffffffffffffffffffffffffffffff1614611096576040517f08c379a000000000000000000000000000000000000000000000000000000000815260040161108d906124b2565b60405180910390fd5b60045f8281526020019081526020015f205f6101000a81549073ffffffffffffffffffffffffffffffffffffffff0219169055600160035f8573ffffffffffffffffffffffffffffffffffffffff1673ffffffffffffffffffffffffffffffffffffffff1681526020019081526020015f205f8282540392505081905550600160035f8473ffffffffffffffffffffffffffffffffffffffff1673ffffffffffffffffffffffffffffffffffffffff1681526020019081526020015f205f82825401925050819055508160025f8381526020019081526020015f205f6101000a81548173ffffffffffffffffffffffffffffffffffffffff021916908373ffffffffffffffffffffffffffffffffffffffff160217905550808273ffffffffffffffffffffffffffffffffffffffff168473ffffffffffffffffffffffffffffffffffffffff167fddf252ad1be2c89b69c2b068fc378daa952ba7f163c4a11628f55a4df523b3ef60405160405180910390a4611216838383600161157a565b505050565b5f60025f8381526020019081526020015f205f9054906101000a900473ffffffffffffffffffffffffffffffffffffffff169050919050565b5f60065f9054906101000a900473ffffffffffffffffffffffffffffffffffffffff1690508160065f6101000a81548173ffffffffffffffffffffffffffffffffffffffff021916908373ffffffffffffffffffffffffffffffffffffffff1602179055508173ffffffffffffffffffffffffffffffffffffffff168173ffffffffffffffffffffffffffffffffffffffff167f8be0079c531659141344cd1fd0a4f28419497f9722a3daafe3b4186f6b6457e060405160405180910390a35050565b8173ffffffffffffffffffffffffffffffffffffffff168373ffffffffffffffffffffffffffffffffffffffff1603611385576040517f08c379a000000000000000000000000000000000000000000000000000000000815260040161137c906125a8565b60405180910390fd5b8060055f8573ffffffffffffffffffffffffffffffffffffffff1673ffffffffffffffffffffffffffffffffffffffff1681526020019081526020015f205f8473ffffffffffffffffffffffffffffffffffffffff1673ffffffffffffffffffffffffffffffffffffffff1681526020019081526020015f205f6101000a81548160ff0219169083151502179055508173ffffffffffffffffffffffffffffffffffffffff168373ffffffffffffffffffffffffffffffffffffffff167f17307eab39ab6107e8899845ad3d59bd9653f200f220920489ca2b5937696c318360405161147191906119e2565b60405180910390a3505050565b611489848484610f2f565b61149584848484611580565b6114d4576040517f08c379a00000000000000000000000000000000000000000000000000000000081526004016114cb90612636565b60405180910390fd5b50505050565b5f8073ffffffffffffffffffffffffffffffffffffffff166114fb8361121b565b73ffffffffffffffffffffffffffffffffffffffff1614159050919050565b6115248383611702565b6115305f848484611580565b61156f576040517f08c379a000000000000000000000000000000000000000000000000000000000815260040161156690612636565b60405180910390fd5b505050565b50505050565b50505050565b5f6115a08473ffffffffffffffffffffffffffffffffffffffff16611915565b156116f5578373ffffffffffffffffffffffffffffffffffffffff1663150b7a026115c9610d43565b8786866040518563ffffffff1660e01b81526004016115eb94939291906126a6565b6020604051808303815f875af192505050801561162657506040513d601f19601f820116820180604052508101906116239190612704565b60015b6116a5573d805f8114611654576040519150601f19603f3d011682016040523d82523d5f602084013e611659565b606091505b505f81510361169d576040517f08c379a000000000000000000000000000000000000000000000000000000000815260040161169490612636565b60405180910390fd5b805181602001fd5b63150b7a0260e01b7bffffffffffffffffffffffffffffffffffffffffffffffffffffffff1916817bffffffffffffffffffffffffffffffffffffffffffffffffffffffff1916149150506116fa565b600190505b949350505050565b5f73ffffffffffffffffffffffffffffffffffffffff168273ffffffffffffffffffffffffffffffffffffffff1603611770576040517f08c379a000000000000000000000000000000000000000000000000000000000815260040161176790612779565b60405180910390fd5b611779816114da565b156117b9576040517f08c379a00000000000000000000000000000000000000000000000000000000081526004016117b0906127e1565b60405180910390fd5b6117c65f83836001611574565b6117cf816114da565b1561180f576040517f08c379a0000000000000000000000000000000000000000000000000000000008152600401611806906127e1565b60405180910390fd5b600160035f8473ffffffffffffffffffffffffffffffffffffffff1673ffffffffffffffffffffffffffffffffffffffff1681526020019081526020015f205f82825401925050819055508160025f8381526020019081526020015f205f6101000a81548173ffffffffffffffffffffffffffffffffffffffff021916908373ffffffffffffffffffffffffffffffffffffffff160217905550808273ffffffffffffffffffffffffffffffffffffffff165f73ffffffffffffffffffffffffffffffffffffffff167fddf252ad1be2c89b69c2b068fc378daa952ba7f163c4a11628f55a4df523b3ef60405160405180910390a46119115f8383600161157a565b5050565b5f808273ffffffffffffffffffffffffffffffffffffffff163b119050919050565b5f604051905090565b5f80fd5b5f80fd5b5f7fffffffff0000000000000000000000000000000000000000000000000000000082169050919050565b61197c81611948565b8114611986575f80fd5b50565b5f8135905061199781611973565b92915050565b5f602082840312156119b2576119b1611940565b5b5f6119bf84828501611989565b91505092915050565b5f8115159050919050565b6119dc816119c8565b82525050565b5f6020820190506119f55f8301846119d3565b92915050565b5f81519050919050565b5f82825260208201905092915050565b5f5b83811015611a32578082015181840152602081019050611a17565b5f8484015250505050565b5f601f19601f8301169050919050565b5f611a57826119fb565b611a618185611a05565b9350611a71818560208601611a15565b611a7a81611a3d565b840191505092915050565b5f6020820190508181035f830152611a9d8184611a4d565b905092915050565b5f819050919050565b611ab781611aa5565b8114611ac1575f80fd5b50565b5f81359050611ad281611aae565b92915050565b5f60208284031215611aed57611aec611940565b5b5f611afa84828501611ac4565b91505092915050565b5f73ffffffffffffffffffffffffffffffffffffffff82169050919050565b5f611b2c82611b03565b9050919050565b611b3c81611b22565b82525050565b5f602082019050611b555f830184611b33565b92915050565b611b6481611b22565b8114611b6e575f80fd5b50565b5f81359050611b7f81611b5b565b92915050565b5f8060408385031215611b9b57611b9a611940565b5b5f611ba885828601611b71565b9250506020611bb985828601611ac4565b9150509250929050565b5f805f60608486031215611bda57611bd9611940565b5b5f611be786828701611b71565b9350506020611bf886828701611b71565b9250506040611c0986828701611ac4565b9150509250925092565b5f60208284031215611c2857611c27611940565b5b5f611c3584828501611b71565b91505092915050565b611c4781611aa5565b82525050565b5f602082019050611c605f830184611c3e565b92915050565b611c6f816119c8565b8114611c79575f80fd5b50565b5f81359050611c8a81611c66565b92915050565b5f8060408385031215611ca657611ca5611940565b5b5f611cb385828601611b71565b9250506020611cc485828601611c7c565b9150509250929050565b5f80fd5b5f80fd5b7f4e487b71000000000000000000000000000000000000000000000000000000005f52604160045260245ffd5b611d0c82611a3d565b810181811067ffffffffffffffff82111715611d2b57611d2a611cd6565b5b80604052505050565b5f611d3d611937565b9050611d498282611d03565b919050565b5f67ffffffffffffffff821115611d6857611d67611cd6565b5b611d7182611a3d565b9050602081019050919050565b828183375f83830152505050565b5f611d9e611d9984611d4e565b611d34565b905082815260208101848484011115611dba57611db9611cd2565b5b611dc5848285611d7e565b509392505050565b5f82601f830112611de157611de0611cce565b5b8135611df1848260208601611d8c565b91505092915050565b5f805f8060808587031215611e1257611e11611940565b5b5f611e1f87828801611b71565b9450506020611e3087828801611b71565b9350506040611e4187828801611ac4565b925050606085013567ffffffffffffffff811115611e6257611e61611944565b5b611e6e87828801611dcd565b91505092959194509250565b5f8060408385031215611e9057611e8f611940565b5b5f611e9d85828601611b71565b9250506020611eae85828601611b71565b9150509250929050565b7f4e487b71000000000000000000000000000000000000000000000000000000005f52602260045260245ffd5b5f6002820490506001821680611efc57607f821691505b602082108103611f0f57611f0e611eb8565b5b50919050565b7f4552433732313a20617070726f76616c20746f2063757272656e74206f776e655f8201527f7200000000000000000000000000000000000000000000000000000000000000602082015250565b5f611f6f602183611a05565b9150611f7a82611f15565b604082019050919050565b5f6020820190508181035f830152611f9c81611f63565b9050919050565b7f4552433732313a20617070726f76652063616c6c6572206973206e6f7420746f5f8201527f6b656e206f776e6572206f7220617070726f76656420666f7220616c6c000000602082015250565b5f611ffd603d83611a05565b915061200882611fa3565b604082019050919050565b5f6020820190508181035f83015261202a81611ff1565b9050919050565b7f416c6c204e465473206d696e74656400000000000000000000000000000000005f82015250565b5f612065600f83611a05565b915061207082612031565b602082019050919050565b5f6020820190508181035f83015261209281612059565b9050919050565b7f4e487b71000000000000000000000000000000000000000000000000000000005f52601160045260245ffd5b5f6120d082611aa5565b91507fffffffffffffffffffffffffffffffffffffffffffffffffffffffffffffffff820361210257612101612099565b5b600182019050919050565b7f4552433732313a2063616c6c6572206973206e6f7420746f6b656e206f776e655f8201527f72206f7220617070726f76656400000000000000000000000000000000000000602082015250565b5f612167602d83611a05565b91506121728261210d565b604082019050919050565b5f6020820190508181035f8301526121948161215b565b9050919050565b7f4552433732313a20696e76616c696420746f6b656e20494400000000000000005f82015250565b5f6121cf601883611a05565b91506121da8261219b565b602082019050919050565b5f6020820190508181035f8301526121fc816121c3565b9050919050565b7f4552433732313a2061646472657373207a65726f206973206e6f7420612076615f8201527f6c6964206f776e65720000000000000000000000000000000000000000000000602082015250565b5f61225d602983611a05565b915061226882612203565b604082019050919050565b5f6020820190508181035f83015261228a81612251565b9050919050565b7f4552433732314d657461646174613a2055524920717565727920666f72206e6f5f8201527f6e6578697374656e7420746f6b656e0000000000000000000000000000000000602082015250565b5f6122eb602f83611a05565b91506122f682612291565b604082019050919050565b5f6020820190508181035f830152612318816122df565b9050919050565b7f4e487b71000000000000000000000000000000000000000000000000000000005f52603260045260245ffd5b7f4f776e61626c653a206e6577206f776e657220697320746865207a65726f20615f8201527f6464726573730000000000000000000000000000000000000000000000000000602082015250565b5f6123a6602683611a05565b91506123b18261234c565b604082019050919050565b5f6020820190508181035f8301526123d38161239a565b9050919050565b7f4f776e61626c653a2063616c6c6572206973206e6f7420746865206f776e65725f82015250565b5f61240e602083611a05565b9150612419826123da565b602082019050919050565b5f6020820190508181035f83015261243b81612402565b9050919050565b7f4552433732313a207472616e736665722066726f6d20696e636f7272656374205f8201527f6f776e6572000000000000000000000000000000000000000000000000000000602082015250565b5f61249c602583611a05565b91506124a782612442565b604082019050919050565b5f6020820190508181035f8301526124c981612490565b9050919050565b7f4552433732313a207472616e7366657220746f20746865207a65726f206164645f8201527f7265737300000000000000000000000000000000000000000000000000000000602082015250565b5f61252a602483611a05565b9150612535826124d0565b604082019050919050565b5f6020820190508181035f8301526125578161251e565b9050919050565b7f4552433732313a20617070726f766520746f2063616c6c6572000000000000005f82015250565b5f612592601983611a05565b915061259d8261255e565b602082019050919050565b5f6020820190508181035f8301526125bf81612586565b9050919050565b7f4552433732313a207472616e7366657220746f206e6f6e2045524337323152655f8201527f63656976657220696d706c656d656e7465720000000000000000000000000000602082015250565b5f612620603283611a05565b915061262b826125c6565b604082019050919050565b5f6020820190508181035f83015261264d81612614565b9050919050565b5f81519050919050565b5f82825260208201905092915050565b5f61267882612654565b612682818561265e565b9350612692818560208601611a15565b61269b81611a3d565b840191505092915050565b5f6080820190506126b95f830187611b33565b6126c66020830186611b33565b6126d36040830185611c3e565b81810360608301526126e5818461266e565b905095945050505050565b5f815190506126fe81611973565b92915050565b5f6020828403121561271957612718611940565b5b5f612726848285016126f0565b91505092915050565b7f4552433732313a206d696e7420746f20746865207a65726f20616464726573735f82015250565b5f612763602083611a05565b915061276e8261272f565b602082019050919050565b5f6020820190508181035f83015261279081612757565b9050919050565b7f4552433732313a20746f6b656e20616c7265616479206d696e746564000000005f82015250565b5f6127cb601c83611a05565b91506127d682612797565b602082019050919050565b5f6020820190508181035f8301526127f8816127bf565b905091905056fea26469706673582212201af58465ef1395609ac5f0d970494e3d49a175372d6c7249040a68c9f5a6b90a64736f6c63430008180033",
  "linkReferences": {},
  "deployedLinkReferences": {}
}