{
  "_format": "hh-sol-artifact-1",
  "contractName": "SHINUNFT",
  "sourceName": "contracts/SHINUNFT.sol",
  "abi": [
    {
      "inputs": [
        {
          "internalType": "string[]",
          "name": "_tokenURIs",
          "type": "string[]"
        }
      ],
      "stateMutability": "nonpayable",
      "type": "constructor"
    },
    {
      "anonymous": false,
      "inputs": [
        {
          "indexed": true,
          "internalType": "address",
          "name": "owner",
          "type": "address"
        },
        {
          "indexed": true,
          "internalType": "address",
          "name": "approved",
          "type": "address"
        },
        {
          "indexed": true,
          "internalType": "uint256",
          "name": "tokenId",
          "type": "uint256"
        }
      ],
      "name": "Approval",
      "type": "event"
    },
    {
      "anonymous": false,
      "inputs": [
        {
          "indexed": true,
          "internalType": "address",
          "name": "owner",
          "type": "address"
        },
        {
          "indexed": true,
          "internalType": "address",
          "name": "operator",
          "type": "address"
        },
        {
          "indexed": false,
          "internalType": "bool",
          "name": "approved",
          "type": "bool"
        }
      ],
      "name": "ApprovalForAll",
      "type": "event"
    },
    {
      "anonymous": false,
      "inputs": [
        {
          "indexed": true,
          "internalType": "address",
          "name": "previousOwner",
          "type": "address"
        },
        {
          "indexed": true,
          "internalType": "address",
          "name": "newOwner",
          "type": "address"
        }
      ],
      "name": "OwnershipTransferred",
      "type": "event"
    },
    {
      "anonymous": false,
      "inputs": [
        {
          "indexed": true,
          "internalType": "address",
          "name": "from",
          "type": "address"
        },
        {
          "indexed": true,
          "internalType": "address",
          "name": "to",
          "type": "address"
        },
        {
          "indexed": true,
          "internalType": "uint256",
          "name": "tokenId",
          "type": "uint256"
        }
      ],
      "name": "Transfer",
      "type": "event"
    },
    {
      "inputs": [
        {
          "internalType": "address",
          "name": "to",
          "type": "address"
        },
        {
          "internalType": "uint256",
          "name": "tokenId",
          "type": "uint256"
        }
      ],
      "name": "approve",
      "outputs": [],
      "stateMutability": "nonpayable",
      "type": "function"
    },
    {
      "inputs": [
        {
          "internalType": "address",
          "name": "owner",
          "type": "address"
        }
      ],
      "name": "balanceOf",
      "outputs": [
        {
          "internalType": "uint256",
          "name": "",
          "type": "uint256"
        }
      ],
      "stateMutability": "view",
      "type": "function"
    },
    {
      "inputs": [
        {
          "internalType": "uint256",
          "name": "tokenId",
          "type": "uint256"
        }
      ],
      "name": "getApproved",
      "outputs": [
        {
          "internalType": "address",
          "name": "",
          "type": "address"
        }
      ],
      "stateMutability": "view",
      "type": "function"
    },
    {
      "inputs": [
        {
          "internalType": "address",
          "name": "owner",
          "type": "address"
        },
        {
          "internalType": "address",
          "name": "operator",
          "type": "address"
        }
      ],
      "name": "isApprovedForAll",
      "outputs": [
        {
          "internalType": "bool",
          "name": "",
          "type": "bool"
        }
      ],
      "stateMutability": "view",
      "type": "function"
    },
    {
      "inputs": [
        {
          "internalType": "address",
          "name": "to",
          "type": "address"
        }
      ],
      "name": "mintTo",
      "outputs": [],
      "stateMutability": "nonpayable",
      "type": "function"
    },
    {
      "inputs": [],
      "name": "name",
      "outputs": [
        {
          "internalType": "string",
          "name": "",
          "type": "string"
        }
      ],
      "stateMutability": "view",
      "type": "function"
    },
    {
      "inputs": [],
      "name": "nextTokenId",
      "outputs": [
        {
          "internalType": "uint256",
          "name": "",
          "type": "uint256"
        }
      ],
      "stateMutability": "view",
      "type": "function"
    },
    {
      "inputs": [],
      "name": "owner",
      "outputs": [
        {
          "internalType": "address",
          "name": "",
          "type": "address"
        }
      ],
      "stateMutability": "view",
      "type": "function"
    },
    {
      "inputs": [
        {
          "internalType": "uint256",
          "name": "tokenId",
          "type": "uint256"
        }
      ],
      "name": "ownerOf",
      "outputs": [
        {
          "internalType": "address",
          "name": "",
          "type": "address"
        }
      ],
      "stateMutability": "view",
      "type": "function"
    },
    {
      "inputs": [],
      "name": "renounceOwnership",
      "outputs": [],
      "stateMutability": "nonpayable",
      "type": "function"
    },
    {
      "inputs": [
        {
          "internalType": "address",
          "name": "from",
          "type": "address"
        },
        {
          "internalType": "address",
          "name": "to",
          "type": "address"
        },
        {
          "internalType": "uint256",
          "name": "tokenId",
          "type": "uint256"
        }
      ],
      "name": "safeTransferFrom",
      "outputs": [],
      "stateMutability": "nonpayable",
      "type": "function"
    },
    {
      "inputs": [
        {
          "internalType": "address",
          "name": "from",
          "type": "address"
        },
        {
          "internalType": "address",
          "name": "to",
          "type": "address"
        },
        {
          "internalType": "uint256",
          "name": "tokenId",
          "type": "uint256"
        },
        {
          "internalType": "bytes",
          "name": "data",
          "type": "bytes"
        }
      ],
      "name": "safeTransferFrom",
      "outputs": [],
      "stateMutability": "nonpayable",
      "type": "function"
    },
    {
      "inputs": [
        {
          "internalType": "address",
          "name": "operator",
          "type": "address"
        },
        {
          "internalType": "bool",
          "name": "approved",
          "type": "bool"
        }
      ],
      "name": "setApprovalForAll",
      "outputs": [],
      "stateMutability": "nonpayable",
      "type": "function"
    },
    {
      "inputs": [
        {
          "internalType": "bytes4",
          "name": "interfaceId",
          "type": "bytes4"
        }
      ],
      "name": "supportsInterface",
      "outputs": [
        {
          "internalType": "bool",
          "name": "",
          "type": "bool"
        }
      ],
      "stateMutability": "view",
      "type": "function"
    },
    {
      "inputs": [],
      "name": "symbol",
      "outputs": [
        {
          "internalType": "string",
          "name": "",
          "type": "string"
        }
      ],
      "stateMutability": "view",
      "type": "function"
    },
    {
      "inputs": [
        {
          "internalType": "uint256",
          "name": "tokenId",
          "type": "uint256"
        }
      ],
      "name": "tokenURI",
      "outputs": [
        {
          "internalType": "string",
          "name": "",
          "type": "string"
        }
      ],
      "stateMutability": "view",
      "type": "function"
    },
    {
      "inputs": [
        {
          "internalType": "uint256",
          "name": "",
          "type": "uint256"
        }
      ],
      "name": "tokenURIs",
      "outputs": [
        {
          "internalType": "string",
          "name": "",
          "type": "string"
        }
      ],
      "stateMutability": "view",
      "type": "function"
    },
    {
      "inputs": [
        {
          "internalType": "address",
          "name": "from",
          "type": "address"
        },
        {
          "internalType": "address",
          "name": "to",
          "type": "address"
        },
        {
          "internalType": "uint256",
          "name": "tokenId",
          "type": "uint256"
        }
      ],
      "name": "transferFrom",
      "outputs": [],
      "stateMutability": "nonpayable",
      "type": "function"
    },
    {
      "inputs": [
        {
          "internalType": "address",
          "name": "newOwner",
          "type": "address"
        }
      ],
      "name": "transferOwnership",
      "outputs": [],
      "stateMutability": "nonpayable",
      "type": "function"
    }
  ],
  "bytecode": "0x608060405234801562000010575f80fd5b50604051620030fa380380620030fa83398181016040528101906200003691906200053a565b6040518060400160405280600881526020017f5348494e554e46540000000000000000000000000000000000000000000000008152506040518060400160405280600581526020017f5348494e55000000000000000000000000000000000000000000000000000000815250815f9081620000b29190620007c0565b508060019081620000c49190620007c0565b505050620000e7620000db6200010e60201b60201c565b6200011560201b60201c565b8060089080519060200190620000ff929190620001d8565b505f60078190555050620008a4565b5f33905090565b5f60065f9054906101000a900473ffffffffffffffffffffffffffffffffffffffff1690508160065f6101000a81548173ffffffffffffffffffffffffffffffffffffffff021916908373ffffffffffffffffffffffffffffffffffffffff1602179055508173ffffffffffffffffffffffffffffffffffffffff168173ffffffffffffffffffffffffffffffffffffffff167f8be0079c531659141344cd1fd0a4f28419497f9722a3daafe3b4186f6b6457e060405160405180910390a35050565b828054828255905f5260205f2090810192821562000223579160200282015b8281111562000222578251829081620002119190620007c0565b5091602001919060010190620001f7565b5b50905062000232919062000236565b5090565b5b8082111562000259575f81816200024f91906200025d565b5060010162000237565b5090565b5080546200026b90620005c0565b5f825580601f106200027e57506200029d565b601f0160209004905f5260205f20908101906200029c9190620002a0565b5b50565b5b80821115620002b9575f815f905550600101620002a1565b5090565b5f604051905090565b5f80fd5b5f80fd5b5f80fd5b5f601f19601f8301169050919050565b7f4e487b71000000000000000000000000000000000000000000000000000000005f52604160045260245ffd5b6200031a82620002d2565b810181811067ffffffffffffffff821117156200033c576200033b620002e2565b5b80604052505050565b5f62000350620002bd565b90506200035e82826200030f565b919050565b5f67ffffffffffffffff82111562000380576200037f620002e2565b5b602082029050602081019050919050565b5f80fd5b5f80fd5b5f67ffffffffffffffff821115620003b657620003b5620002e2565b5b620003c182620002d2565b9050602081019050919050565b5f5b83811015620003ed578082015181840152602081019050620003d0565b5f8484015250505050565b5f6200040e620004088462000399565b62000345565b9050828152602081018484840111156200042d576200042c62000395565b5b6200043a848285620003ce565b509392505050565b5f82601f830112620004595762000458620002ce565b5b81516200046b848260208601620003f8565b91505092915050565b5f6200048a620004848462000363565b62000345565b90508083825260208201905060208402830185811115620004b057620004af62000391565b5b835b81811015620004fe57805167ffffffffffffffff811115620004d957620004d8620002ce565b5b808601620004e8898262000442565b85526020850194505050602081019050620004b2565b5050509392505050565b5f82601f8301126200051f576200051e620002ce565b5b81516200053184826020860162000474565b91505092915050565b5f60208284031215620005525762000551620002c6565b5b5f82015167ffffffffffffffff811115620005725762000571620002ca565b5b620005808482850162000508565b91505092915050565b5f81519050919050565b7f4e487b71000000000000000000000000000000000000000000000000000000005f52602260045260245ffd5b5f6002820490506001821680620005d857607f821691505b602082108103620005ee57620005ed62000593565b5b50919050565b5f819050815f5260205f209050919050565b5f6020601f8301049050919050565b5f82821b905092915050565b5f60088302620006527fffffffffffffffffffffffffffffffffffffffffffffffffffffffffffffffff8262000615565b6200065e868362000615565b95508019841693508086168417925050509392505050565b5f819050919050565b5f819050919050565b5f620006a8620006a26200069c8462000676565b6200067f565b62000676565b9050919050565b5f819050919050565b620006c38362000688565b620006db620006d282620006af565b84845462000621565b825550505050565b5f90565b620006f1620006e3565b620006fe818484620006b8565b505050565b5b818110156200072557620007195f82620006e7565b60018101905062000704565b5050565b601f82111562000774576200073e81620005f4565b620007498462000606565b8101602085101562000759578190505b62000771620007688562000606565b83018262000703565b50505b505050565b5f82821c905092915050565b5f620007965f198460080262000779565b1980831691505092915050565b5f620007b0838362000785565b9150826002028217905092915050565b620007cb8262000589565b67ffffffffffffffff811115620007e757620007e6620002e2565b5b620007f38254620005c0565b6200080082828562000729565b5f60209050601f83116001811462000836575f841562000821578287015190505b6200082d8582620007a3565b8655506200089c565b601f1984166200084686620005f4565b5f5b828110156200086f5784890151825560018201915060208501945060208101905062000848565b868310156200088f57848901516200088b601f89168262000785565b8355505b6001600288020188555050505b505050505050565b61284880620008b25f395ff3fe608060405234801561000f575f80fd5b506004361061011f575f3560e01c8063715018a6116100ab578063a22cb4651161006f578063a22cb46514610305578063b88d4fde14610321578063c87b56dd1461033d578063e985e9c51461036d578063f2fde38b1461039d5761011f565b8063715018a614610285578063755edd171461028f57806375794a3c146102ab5780638da5cb5b146102c957806395d89b41146102e75761011f565b806323b872dd116100f257806323b872dd146101bd57806342842e0e146101d95780636352211e146101f55780636c8b703f1461022557806370a08231146102555761011f565b806301ffc9a71461012357806306fdde0314610153578063081812fc14610171578063095ea7b3146101a1575b5f80fd5b61013d600480360381019061013891906119b0565b6103b9565b60405161014a91906119f5565b60405180910390f35b61015b61049a565b6040516101689190611a98565b60405180910390f35b61018b60048036038101906101869190611aeb565b610529565b6040516101989190611b55565b60405180910390f35b6101bb60048036038101906101b69190611b98565b61056b565b005b6101d760048036038101906101d29190611bd6565b610681565b005b6101f360048036038101906101ee9190611bd6565b6106e1565b005b61020f600480360381019061020a9190611aeb565b610700565b60405161021c9190611b55565b60405180910390f35b61023f600480360381019061023a9190611aeb565b610784565b60405161024c9190611a98565b60405180910390f35b61026f600480360381019061026a9190611c26565b61082a565b60405161027c9190611c60565b60405180910390f35b61028d6108de565b005b6102a960048036038101906102a49190611c26565b6108f1565b005b6102b3610968565b6040516102c09190611c60565b60405180910390f35b6102d161096e565b6040516102de9190611b55565b60405180910390f35b6102ef610996565b6040516102fc9190611a98565b60405180910390f35b61031f600480360381019061031a9190611ca3565b610a26565b005b61033b60048036038101906103369190611e0d565b610a3c565b005b61035760048036038101906103529190611aeb565b610a9e565b6040516103649190611a98565b60405180910390f35b61038760048036038101906103829190611e8d565b610b92565b60405161039491906119f5565b60405180910390f35b6103b760048036038101906103b29190611c26565b610c20565b005b5f7f80ac58cd000000000000000000000000000000000000000000000000000000007bffffffffffffffffffffffffffffffffffffffffffffffffffffffff1916827bffffffffffffffffffffffffffffffffffffffffffffffffffffffff1916148061048357507f5b5e139f000000000000000000000000000000000000000000000000000000007bffffffffffffffffffffffffffffffffffffffffffffffffffffffff1916827bffffffffffffffffffffffffffffffffffffffffffffffffffffffff1916145b80610493575061049282610ca2565b5b9050919050565b60605f80546104a890611ef8565b80601f01602080910402602001604051908101604052809291908181526020018280546104d490611ef8565b801561051f5780601f106104f65761010080835404028352916020019161051f565b820191905f5260205f20905b81548152906001019060200180831161050257829003601f168201915b5050505050905090565b5f61053382610d0b565b60045f8381526020019081526020015f205f9054906101000a900473ffffffffffffffffffffffffffffffffffffffff169050919050565b5f61057582610700565b90508073ffffffffffffffffffffffffffffffffffffffff168373ffffffffffffffffffffffffffffffffffffffff16036105e5576040517f08c379a00000000000000000000000000000000000000000000000000000000081526004016105dc90611f98565b60405180910390fd5b8073ffffffffffffffffffffffffffffffffffffffff16610604610d56565b73ffffffffffffffffffffffffffffffffffffffff16148061063357506106328161062d610d56565b610b92565b5b610672576040517f08c379a000000000000000000000000000000000000000000000000000000000815260040161066990612026565b60405180910390fd5b61067c8383610d5d565b505050565b61069261068c610d56565b82610e13565b6106d1576040517f08c379a00000000000000000000000000000000000000000000000000000000081526004016106c8906120b4565b60405180910390fd5b6106dc838383610ea7565b505050565b6106fb83838360405180602001604052805f815250610a3c565b505050565b5f8061070b83611193565b90505f73ffffffffffffffffffffffffffffffffffffffff168173ffffffffffffffffffffffffffffffffffffffff160361077b576040517f08c379a00000000000000000000000000000000000000000000000000000000081526004016107729061211c565b60405180910390fd5b80915050919050565b60088181548110610793575f80fd5b905f5260205f20015f9150905080546107ab90611ef8565b80601f01602080910402602001604051908101604052809291908181526020018280546107d790611ef8565b80156108225780601f106107f957610100808354040283529160200191610822565b820191905f5260205f20905b81548152906001019060200180831161080557829003601f168201915b505050505081565b5f8073ffffffffffffffffffffffffffffffffffffffff168273ffffffffffffffffffffffffffffffffffffffff1603610899576040517f08c379a0000000000000000000000000000000000000000000000000000000008152600401610890906121aa565b60405180910390fd5b60035f8373ffffffffffffffffffffffffffffffffffffffff1673ffffffffffffffffffffffffffffffffffffffff1681526020019081526020015f20549050919050565b6108e66111cc565b6108ef5f61124a565b565b6108f96111cc565b60088054905060075410610942576040517f08c379a000000000000000000000000000000000000000000000000000000000815260040161093990612212565b60405180910390fd5b61094e8160075461130d565b60075f8154809291906109609061225d565b919050555050565b60075481565b5f60065f9054906101000a900473ffffffffffffffffffffffffffffffffffffffff16905090565b6060600180546109a590611ef8565b80601f01602080910402602001604051908101604052809291908181526020018280546109d190611ef8565b8015610a1c5780601f106109f357610100808354040283529160200191610a1c565b820191905f5260205f20905b8154815290600101906020018083116109ff57829003601f168201915b5050505050905090565b610a38610a31610d56565b838361132a565b5050565b610a4d610a47610d56565b83610e13565b610a8c576040517f08c379a0000000000000000000000000000000000000000000000000000000008152600401610a83906120b4565b60405180910390fd5b610a9884848484611491565b50505050565b6060610aa9826114ed565b610ae8576040517f08c379a0000000000000000000000000000000000000000000000000000000008152600401610adf90612314565b60405180910390fd5b60088281548110610afc57610afb612332565b5b905f5260205f20018054610b0f90611ef8565b80601f0160208091040260200160405190810160405280929190818152602001828054610b3b90611ef8565b8015610b865780601f10610b5d57610100808354040283529160200191610b86565b820191905f5260205f20905b815481529060010190602001808311610b6957829003601f168201915b50505050509050919050565b5f60055f8473ffffffffffffffffffffffffffffffffffffffff1673ffffffffffffffffffffffffffffffffffffffff1681526020019081526020015f205f8373ffffffffffffffffffffffffffffffffffffffff1673ffffffffffffffffffffffffffffffffffffffff1681526020019081526020015f205f9054906101000a900460ff16905092915050565b610c286111cc565b5f73ffffffffffffffffffffffffffffffffffffffff168173ffffffffffffffffffffffffffffffffffffffff1603610c96576040517f08c379a0000000000000000000000000000000000000000000000000000000008152600401610c8d906123cf565b60405180910390fd5b610c9f8161124a565b50565b5f7f01ffc9a7000000000000000000000000000000000000000000000000000000007bffffffffffffffffffffffffffffffffffffffffffffffffffffffff1916827bffffffffffffffffffffffffffffffffffffffffffffffffffffffff1916149050919050565b610d14816114ed565b610d53576040517f08c379a0000000000000000000000000000000000000000000000000000000008152600401610d4a9061211c565b60405180910390fd5b50565b5f33905090565b8160045f8381526020019081526020015f205f6101000a81548173ffffffffffffffffffffffffffffffffffffffff021916908373ffffffffffffffffffffffffffffffffffffffff160217905550808273ffffffffffffffffffffffffffffffffffffffff16610dcd83610700565b73ffffffffffffffffffffffffffffffffffffffff167f8c5be1e5ebec7d5bd14f71427d1e84f3dd0314c0f7b2291e5b200ac8c7c3b92560405160405180910390a45050565b5f80610e1e83610700565b90508073ffffffffffffffffffffffffffffffffffffffff168473ffffffffffffffffffffffffffffffffffffffff161480610e605750610e5f8185610b92565b5b80610e9e57508373ffffffffffffffffffffffffffffffffffffffff16610e8684610529565b73ffffffffffffffffffffffffffffffffffffffff16145b91505092915050565b8273ffffffffffffffffffffffffffffffffffffffff16610ec782610700565b73ffffffffffffffffffffffffffffffffffffffff1614610f1d576040517f08c379a0000000000000000000000000000000000000000000000000000000008152600401610f149061245d565b60405180910390fd5b5f73ffffffffffffffffffffffffffffffffffffffff168273ffffffffffffffffffffffffffffffffffffffff1603610f8b576040517f08c379a0000000000000000000000000000000000000000000000000000000008152600401610f82906124eb565b60405180910390fd5b610f98838383600161152d565b8273ffffffffffffffffffffffffffffffffffffffff16610fb882610700565b73ffffffffffffffffffffffffffffffffffffffff161461100e576040517f08c379a00000000000000000000000000000000000000000000000000000000081526004016110059061245d565b60405180910390fd5b60045f8281526020019081526020015f205f6101000a81549073ffffffffffffffffffffffffffffffffffffffff0219169055600160035f8573ffffffffffffffffffffffffffffffffffffffff1673ffffffffffffffffffffffffffffffffffffffff1681526020019081526020015f205f8282540392505081905550600160035f8473ffffffffffffffffffffffffffffffffffffffff1673ffffffffffffffffffffffffffffffffffffffff1681526020019081526020015f205f82825401925050819055508160025f8381526020019081526020015f205f6101000a81548173ffffffffffffffffffffffffffffffffffffffff021916908373ffffffffffffffffffffffffffffffffffffffff160217905550808273ffffffffffffffffffffffffffffffffffffffff168473ffffffffffffffffffffffffffffffffffffffff167fddf252ad1be2c89b69c2b068fc378daa952ba7f163c4a11628f55a4df523b3ef60405160405180910390a461118e8383836001611533565b505050565b5f60025f8381526020019081526020015f205f9054906101000a900473ffffffffffffffffffffffffffffffffffffffff169050919050565b6111d4610d56565b73ffffffffffffffffffffffffffffffffffffffff166111f261096e565b73ffffffffffffffffffffffffffffffffffffffff1614611248576040517f08c379a000000000000000000000000000000000000000000000000000000000815260040161123f90612553565b60405180910390fd5b565b5f60065f9054906101000a900473ffffffffffffffffffffffffffffffffffffffff1690508160065f6101000a81548173ffffffffffffffffffffffffffffffffffffffff021916908373ffffffffffffffffffffffffffffffffffffffff1602179055508173ffffffffffffffffffffffffffffffffffffffff168173ffffffffffffffffffffffffffffffffffffffff167f8be0079c531659141344cd1fd0a4f28419497f9722a3daafe3b4186f6b6457e060405160405180910390a35050565b611326828260405180602001604052805f815250611539565b5050565b8173ffffffffffffffffffffffffffffffffffffffff168373ffffffffffffffffffffffffffffffffffffffff1603611398576040517f08c379a000000000000000000000000000000000000000000000000000000000815260040161138f906125bb565b60405180910390fd5b8060055f8573ffffffffffffffffffffffffffffffffffffffff1673ffffffffffffffffffffffffffffffffffffffff1681526020019081526020015f205f8473ffffffffffffffffffffffffffffffffffffffff1673ffffffffffffffffffffffffffffffffffffffff1681526020019081526020015f205f6101000a81548160ff0219169083151502179055508173ffffffffffffffffffffffffffffffffffffffff168373ffffffffffffffffffffffffffffffffffffffff167f17307eab39ab6107e8899845ad3d59bd9653f200f220920489ca2b5937696c318360405161148491906119f5565b60405180910390a3505050565b61149c848484610ea7565b6114a884848484611593565b6114e7576040517f08c379a00000000000000000000000000000000000000000000000000000000081526004016114de90612649565b60405180910390fd5b50505050565b5f8073ffffffffffffffffffffffffffffffffffffffff1661150e83611193565b73ffffffffffffffffffffffffffffffffffffffff1614159050919050565b50505050565b50505050565b6115438383611715565b61154f5f848484611593565b61158e576040517f08c379a000000000000000000000000000000000000000000000000000000000815260040161158590612649565b60405180910390fd5b505050565b5f6115b38473ffffffffffffffffffffffffffffffffffffffff16611928565b15611708578373ffffffffffffffffffffffffffffffffffffffff1663150b7a026115dc610d56565b8786866040518563ffffffff1660e01b81526004016115fe94939291906126b9565b6020604051808303815f875af192505050801561163957506040513d601f19601f820116820180604052508101906116369190612717565b60015b6116b8573d805f8114611667576040519150601f19603f3d011682016040523d82523d5f602084013e61166c565b606091505b505f8151036116b0576040517f08c379a00000000000000000000000000000000000000000000000000000000081526004016116a790612649565b60405180910390fd5b805181602001fd5b63150b7a0260e01b7bffffffffffffffffffffffffffffffffffffffffffffffffffffffff1916817bffffffffffffffffffffffffffffffffffffffffffffffffffffffff19161491505061170d565b600190505b949350505050565b5f73ffffffffffffffffffffffffffffffffffffffff168273ffffffffffffffffffffffffffffffffffffffff1603611783576040517f08c379a000000000000000000000000000000000000000000000000000000000815260040161177a9061278c565b60405180910390fd5b61178c816114ed565b156117cc576040517f08c379a00000000000000000000000000000000000000000000000000000000081526004016117c3906127f4565b60405180910390fd5b6117d95f8383600161152d565b6117e2816114ed565b15611822576040517f08c379a0000000000000000000000000000000000000000000000000000000008152600401611819906127f4565b60405180910390fd5b600160035f8473ffffffffffffffffffffffffffffffffffffffff1673ffffffffffffffffffffffffffffffffffffffff1681526020019081526020015f205f82825401925050819055508160025f8381526020019081526020015f205f6101000a81548173ffffffffffffffffffffffffffffffffffffffff021916908373ffffffffffffffffffffffffffffffffffffffff160217905550808273ffffffffffffffffffffffffffffffffffffffff165f73ffffffffffffffffffffffffffffffffffffffff167fddf252ad1be2c89b69c2b068fc378daa952ba7f163c4a11628f55a4df523b3ef60405160405180910390a46119245f83836001611533565b5050565b5f808273ffffffffffffffffffffffffffffffffffffffff163b119050919050565b5f604051905090565b5f80fd5b5f80fd5b5f7fffffffff0000000000000000000000000000000000000000000000000000000082169050919050565b61198f8161195b565b8114611999575f80fd5b50565b5f813590506119aa81611986565b92915050565b5f602082840312156119c5576119c4611953565b5b5f6119d28482850161199c565b91505092915050565b5f8115159050919050565b6119ef816119db565b82525050565b5f602082019050611a085f8301846119e6565b92915050565b5f81519050919050565b5f82825260208201905092915050565b5f5b83811015611a45578082015181840152602081019050611a2a565b5f8484015250505050565b5f601f19601f8301169050919050565b5f611a6a82611a0e565b611a748185611a18565b9350611a84818560208601611a28565b611a8d81611a50565b840191505092915050565b5f6020820190508181035f830152611ab08184611a60565b905092915050565b5f819050919050565b611aca81611ab8565b8114611ad4575f80fd5b50565b5f81359050611ae581611ac1565b92915050565b5f60208284031215611b0057611aff611953565b5b5f611b0d84828501611ad7565b91505092915050565b5f73ffffffffffffffffffffffffffffffffffffffff82169050919050565b5f611b3f82611b16565b9050919050565b611b4f81611b35565b82525050565b5f602082019050611b685f830184611b46565b92915050565b611b7781611b35565b8114611b81575f80fd5b50565b5f81359050611b9281611b6e565b92915050565b5f8060408385031215611bae57611bad611953565b5b5f611bbb85828601611b84565b9250506020611bcc85828601611ad7565b9150509250929050565b5f805f60608486031215611bed57611bec611953565b5b5f611bfa86828701611b84565b9350506020611c0b86828701611b84565b9250506040611c1c86828701611ad7565b9150509250925092565b5f60208284031215611c3b57611c3a611953565b5b5f611c4884828501611b84565b91505092915050565b611c5a81611ab8565b82525050565b5f602082019050611c735f830184611c51565b92915050565b611c82816119db565b8114611c8c575f80fd5b50565b5f81359050611c9d81611c79565b92915050565b5f8060408385031215611cb957611cb8611953565b5b5f611cc685828601611b84565b9250506020611cd785828601611c8f565b9150509250929050565b5f80fd5b5f80fd5b7f4e487b71000000000000000000000000000000000000000000000000000000005f52604160045260245ffd5b611d1f82611a50565b810181811067ffffffffffffffff82111715611d3e57611d3d611ce9565b5b80604052505050565b5f611d5061194a565b9050611d5c8282611d16565b919050565b5f67ffffffffffffffff821115611d7b57611d7a611ce9565b5b611d8482611a50565b9050602081019050919050565b828183375f83830152505050565b5f611db1611dac84611d61565b611d47565b905082815260208101848484011115611dcd57611dcc611ce5565b5b611dd8848285611d91565b509392505050565b5f82601f830112611df457611df3611ce1565b5b8135611e04848260208601611d9f565b91505092915050565b5f805f8060808587031215611e2557611e24611953565b5b5f611e3287828801611b84565b9450506020611e4387828801611b84565b9350506040611e5487828801611ad7565b925050606085013567ffffffffffffffff811115611e7557611e74611957565b5b611e8187828801611de0565b91505092959194509250565b5f8060408385031215611ea357611ea2611953565b5b5f611eb085828601611b84565b9250506020611ec185828601611b84565b9150509250929050565b7f4e487b71000000000000000000000000000000000000000000000000000000005f52602260045260245ffd5b5f6002820490506001821680611f0f57607f821691505b602082108103611f2257611f21611ecb565b5b50919050565b7f4552433732313a20617070726f76616c20746f2063757272656e74206f776e655f8201527f7200000000000000000000000000000000000000000000000000000000000000602082015250565b5f611f82602183611a18565b9150611f8d82611f28565b604082019050919050565b5f6020820190508181035f830152611faf81611f76565b9050919050565b7f4552433732313a20617070726f76652063616c6c6572206973206e6f7420746f5f8201527f6b656e206f776e6572206f7220617070726f76656420666f7220616c6c000000602082015250565b5f612010603d83611a18565b915061201b82611fb6565b604082019050919050565b5f6020820190508181035f83015261203d81612004565b9050919050565b7f4552433732313a2063616c6c6572206973206e6f7420746f6b656e206f776e655f8201527f72206f7220617070726f76656400000000000000000000000000000000000000602082015250565b5f61209e602d83611a18565b91506120a982612044565b604082019050919050565b5f6020820190508181035f8301526120cb81612092565b9050919050565b7f4552433732313a20696e76616c696420746f6b656e20494400000000000000005f82015250565b5f612106601883611a18565b9150612111826120d2565b602082019050919050565b5f6020820190508181035f830152612133816120fa565b9050919050565b7f4552433732313a2061646472657373207a65726f206973206e6f7420612076615f8201527f6c6964206f776e65720000000000000000000000000000000000000000000000602082015250565b5f612194602983611a18565b915061219f8261213a565b604082019050919050565b5f6020820190508181035f8301526121c181612188565b9050919050565b7f416c6c204e465473206d696e74656400000000000000000000000000000000005f82015250565b5f6121fc600f83611a18565b9150612207826121c8565b602082019050919050565b5f6020820190508181035f830152612229816121f0565b9050919050565b7f4e487b71000000000000000000000000000000000000000000000000000000005f52601160045260245ffd5b5f61226782611ab8565b91507fffffffffffffffffffffffffffffffffffffffffffffffffffffffffffffffff820361229957612298612230565b5b600182019050919050565b7f4552433732314d657461646174613a2055524920717565727920666f72206e6f5f8201527f6e6578697374656e7420746f6b656e0000000000000000000000000000000000602082015250565b5f6122fe602f83611a18565b9150612309826122a4565b604082019050919050565b5f6020820190508181035f83015261232b816122f2565b9050919050565b7f4e487b71000000000000000000000000000000000000000000000000000000005f52603260045260245ffd5b7f4f776e61626c653a206e6577206f776e657220697320746865207a65726f20615f8201527f6464726573730000000000000000000000000000000000000000000000000000602082015250565b5f6123b9602683611a18565b91506123c48261235f565b604082019050919050565b5f6020820190508181035f8301526123e6816123ad565b9050919050565b7f4552433732313a207472616e736665722066726f6d20696e636f7272656374205f8201527f6f776e6572000000000000000000000000000000000000000000000000000000602082015250565b5f612447602583611a18565b9150612452826123ed565b604082019050919050565b5f6020820190508181035f8301526124748161243b565b9050919050565b7f4552433732313a207472616e7366657220746f20746865207a65726f206164645f8201527f7265737300000000000000000000000000000000000000000000000000000000602082015250565b5f6124d5602483611a18565b91506124e08261247b565b604082019050919050565b5f6020820190508181035f830152612502816124c9565b9050919050565b7f4f776e61626c653a2063616c6c6572206973206e6f7420746865206f776e65725f82015250565b5f61253d602083611a18565b915061254882612509565b602082019050919050565b5f6020820190508181035f83015261256a81612531565b9050919050565b7f4552433732313a20617070726f766520746f2063616c6c6572000000000000005f82015250565b5f6125a5601983611a18565b91506125b082612571565b602082019050919050565b5f6020820190508181035f8301526125d281612599565b9050919050565b7f4552433732313a207472616e7366657220746f206e6f6e2045524337323152655f8201527f63656976657220696d706c656d656e7465720000000000000000000000000000602082015250565b5f612633603283611a18565b915061263e826125d9565b604082019050919050565b5f6020820190508181035f83015261266081612627565b9050919050565b5f81519050919050565b5f82825260208201905092915050565b5f61268b82612667565b6126958185612671565b93506126a5818560208601611a28565b6126ae81611a50565b840191505092915050565b5f6080820190506126cc5f830187611b46565b6126d96020830186611b46565b6126e66040830185611c51565b81810360608301526126f88184612681565b905095945050505050565b5f8151905061271181611986565b92915050565b5f6020828403121561272c5761272b611953565b5b5f61273984828501612703565b91505092915050565b7f4552433732313a206d696e7420746f20746865207a65726f20616464726573735f82015250565b5f612776602083611a18565b915061278182612742565b602082019050919050565b5f6020820190508181035f8301526127a38161276a565b9050919050565b7f4552433732313a20746f6b656e20616c7265616479206d696e746564000000005f82015250565b5f6127de601c83611a18565b91506127e9826127aa565b602082019050919050565b5f6020820190508181035f83015261280b816127d2565b905091905056fea264697066735822122095426a57e17312e2784f1ebcc2ae3b81dceeb1d2e14a91fb4f5ea43e49193d7a64736f6c63430008180033",
  "linkReferences": {},
  "deployedLinkReferences": {}
}